{
  "_format": "hh-sol-artifact-1",
  "contractName": "MyEpicGame",
  "sourceName": "contracts/MyEpicGame.sol",
  "abi": [
    {
      "inputs": [
        {
          "internalType": "string[]",
          "name": "characterNames",
          "type": "string[]"
        },
        {
          "internalType": "string[]",
          "name": "characterImageURIs",
          "type": "string[]"
        },
        {
          "internalType": "uint256[]",
          "name": "characterHp",
          "type": "uint256[]"
        },
        {
          "internalType": "uint256[]",
          "name": "characterAttackDmg",
          "type": "uint256[]"
        },
        {
          "internalType": "uint256[]",
          "name": "characterDefense",
          "type": "uint256[]"
        },
        {
          "internalType": "string",
          "name": "bossName",
          "type": "string"
        },
        {
          "internalType": "string",
          "name": "bossImageURI",
          "type": "string"
        },
        {
          "internalType": "uint256",
          "name": "bossHp",
          "type": "uint256"
        },
        {
          "internalType": "uint256",
          "name": "bossAttackDamage",
          "type": "uint256"
        },
        {
          "internalType": "uint256",
          "name": "bossDefense",
          "type": "uint256"
        }
      ],
      "stateMutability": "nonpayable",
      "type": "constructor"
    },
    {
      "anonymous": false,
      "inputs": [
        {
          "indexed": true,
          "internalType": "address",
          "name": "owner",
          "type": "address"
        },
        {
          "indexed": true,
          "internalType": "address",
          "name": "approved",
          "type": "address"
        },
        {
          "indexed": true,
          "internalType": "uint256",
          "name": "tokenId",
          "type": "uint256"
        }
      ],
      "name": "Approval",
      "type": "event"
    },
    {
      "anonymous": false,
      "inputs": [
        {
          "indexed": true,
          "internalType": "address",
          "name": "owner",
          "type": "address"
        },
        {
          "indexed": true,
          "internalType": "address",
          "name": "operator",
          "type": "address"
        },
        {
          "indexed": false,
          "internalType": "bool",
          "name": "approved",
          "type": "bool"
        }
      ],
      "name": "ApprovalForAll",
      "type": "event"
    },
    {
      "anonymous": false,
      "inputs": [
        {
          "indexed": false,
          "internalType": "address",
          "name": "sender",
          "type": "address"
        },
        {
          "indexed": false,
          "internalType": "uint256",
          "name": "newBossHp",
          "type": "uint256"
        },
        {
          "indexed": false,
          "internalType": "uint256",
          "name": "newPlayerHp",
          "type": "uint256"
        }
      ],
      "name": "AttackComplete",
      "type": "event"
    },
    {
      "anonymous": false,
      "inputs": [
        {
          "indexed": false,
          "internalType": "address",
          "name": "sender",
          "type": "address"
        },
        {
          "indexed": false,
          "internalType": "uint256",
          "name": "tokenId",
          "type": "uint256"
        },
        {
          "indexed": false,
          "internalType": "uint256",
          "name": "characterIndex",
          "type": "uint256"
        }
      ],
      "name": "CharacterNFTMinted",
      "type": "event"
    },
    {
      "anonymous": false,
      "inputs": [
        {
          "indexed": true,
          "internalType": "address",
          "name": "from",
          "type": "address"
        },
        {
          "indexed": true,
          "internalType": "address",
          "name": "to",
          "type": "address"
        },
        {
          "indexed": true,
          "internalType": "uint256",
          "name": "tokenId",
          "type": "uint256"
        }
      ],
      "name": "Transfer",
      "type": "event"
    },
    {
      "inputs": [
        {
          "internalType": "address",
          "name": "to",
          "type": "address"
        },
        {
          "internalType": "uint256",
          "name": "tokenId",
          "type": "uint256"
        }
      ],
      "name": "approve",
      "outputs": [],
      "stateMutability": "nonpayable",
      "type": "function"
    },
    {
      "inputs": [],
      "name": "attackBoss",
      "outputs": [],
      "stateMutability": "nonpayable",
      "type": "function"
    },
    {
      "inputs": [
        {
          "internalType": "address",
          "name": "owner",
          "type": "address"
        }
      ],
      "name": "balanceOf",
      "outputs": [
        {
          "internalType": "uint256",
          "name": "",
          "type": "uint256"
        }
      ],
      "stateMutability": "view",
      "type": "function"
    },
    {
      "inputs": [],
      "name": "bigBoss",
      "outputs": [
        {
          "internalType": "string",
          "name": "name",
          "type": "string"
        },
        {
          "internalType": "string",
          "name": "imageURI",
          "type": "string"
        },
        {
          "internalType": "uint256",
          "name": "hp",
          "type": "uint256"
        },
        {
          "internalType": "uint256",
          "name": "maxHp",
          "type": "uint256"
        },
        {
          "internalType": "uint256",
          "name": "attackDamage",
          "type": "uint256"
        },
        {
          "internalType": "uint256",
          "name": "defense",
          "type": "uint256"
        }
      ],
      "stateMutability": "view",
      "type": "function"
    },
    {
      "inputs": [],
      "name": "checkIfUserHasNFT",
      "outputs": [
        {
          "components": [
            {
              "internalType": "uint256",
              "name": "characterIndex",
              "type": "uint256"
            },
            {
              "internalType": "string",
              "name": "name",
              "type": "string"
            },
            {
              "internalType": "string",
              "name": "imageURI",
              "type": "string"
            },
            {
              "internalType": "uint256",
              "name": "hp",
              "type": "uint256"
            },
            {
              "internalType": "uint256",
              "name": "maxHp",
              "type": "uint256"
            },
            {
              "internalType": "uint256",
              "name": "attackDamage",
              "type": "uint256"
            },
            {
              "internalType": "uint256",
              "name": "defense",
              "type": "uint256"
            }
          ],
          "internalType": "struct MyEpicGame.CharacterAttributes",
          "name": "",
          "type": "tuple"
        }
      ],
      "stateMutability": "view",
      "type": "function"
    },
    {
      "inputs": [],
      "name": "getAllDefaultcharacters",
      "outputs": [
        {
          "components": [
            {
              "internalType": "uint256",
              "name": "characterIndex",
              "type": "uint256"
            },
            {
              "internalType": "string",
              "name": "name",
              "type": "string"
            },
            {
              "internalType": "string",
              "name": "imageURI",
              "type": "string"
            },
            {
              "internalType": "uint256",
              "name": "hp",
              "type": "uint256"
            },
            {
              "internalType": "uint256",
              "name": "maxHp",
              "type": "uint256"
            },
            {
              "internalType": "uint256",
              "name": "attackDamage",
              "type": "uint256"
            },
            {
              "internalType": "uint256",
              "name": "defense",
              "type": "uint256"
            }
          ],
          "internalType": "struct MyEpicGame.CharacterAttributes[]",
          "name": "",
          "type": "tuple[]"
        }
      ],
      "stateMutability": "view",
      "type": "function"
    },
    {
      "inputs": [
        {
          "internalType": "uint256",
          "name": "tokenId",
          "type": "uint256"
        }
      ],
      "name": "getApproved",
      "outputs": [
        {
          "internalType": "address",
          "name": "",
          "type": "address"
        }
      ],
      "stateMutability": "view",
      "type": "function"
    },
    {
      "inputs": [],
      "name": "getBigBoss",
      "outputs": [
        {
          "components": [
            {
              "internalType": "string",
              "name": "name",
              "type": "string"
            },
            {
              "internalType": "string",
              "name": "imageURI",
              "type": "string"
            },
            {
              "internalType": "uint256",
              "name": "hp",
              "type": "uint256"
            },
            {
              "internalType": "uint256",
              "name": "maxHp",
              "type": "uint256"
            },
            {
              "internalType": "uint256",
              "name": "attackDamage",
              "type": "uint256"
            },
            {
              "internalType": "uint256",
              "name": "defense",
              "type": "uint256"
            }
          ],
          "internalType": "struct MyEpicGame.BigBoss",
          "name": "",
          "type": "tuple"
        }
      ],
      "stateMutability": "view",
      "type": "function"
    },
    {
      "inputs": [
        {
          "internalType": "address",
          "name": "owner",
          "type": "address"
        },
        {
          "internalType": "address",
          "name": "operator",
          "type": "address"
        }
      ],
      "name": "isApprovedForAll",
      "outputs": [
        {
          "internalType": "bool",
          "name": "",
          "type": "bool"
        }
      ],
      "stateMutability": "view",
      "type": "function"
    },
    {
      "inputs": [
        {
          "internalType": "uint256",
          "name": "_characterIndex",
          "type": "uint256"
        }
      ],
      "name": "mintCharacterNFT",
      "outputs": [],
      "stateMutability": "nonpayable",
      "type": "function"
    },
    {
      "inputs": [],
      "name": "name",
      "outputs": [
        {
          "internalType": "string",
          "name": "",
          "type": "string"
        }
      ],
      "stateMutability": "view",
      "type": "function"
    },
    {
      "inputs": [
        {
          "internalType": "uint256",
          "name": "",
          "type": "uint256"
        }
      ],
      "name": "nftHolderAttributes",
      "outputs": [
        {
          "internalType": "uint256",
          "name": "characterIndex",
          "type": "uint256"
        },
        {
          "internalType": "string",
          "name": "name",
          "type": "string"
        },
        {
          "internalType": "string",
          "name": "imageURI",
          "type": "string"
        },
        {
          "internalType": "uint256",
          "name": "hp",
          "type": "uint256"
        },
        {
          "internalType": "uint256",
          "name": "maxHp",
          "type": "uint256"
        },
        {
          "internalType": "uint256",
          "name": "attackDamage",
          "type": "uint256"
        },
        {
          "internalType": "uint256",
          "name": "defense",
          "type": "uint256"
        }
      ],
      "stateMutability": "view",
      "type": "function"
    },
    {
      "inputs": [
        {
          "internalType": "address",
          "name": "",
          "type": "address"
        }
      ],
      "name": "nftHolders",
      "outputs": [
        {
          "internalType": "uint256",
          "name": "",
          "type": "uint256"
        }
      ],
      "stateMutability": "view",
      "type": "function"
    },
    {
      "inputs": [
        {
          "internalType": "uint256",
          "name": "tokenId",
          "type": "uint256"
        }
      ],
      "name": "ownerOf",
      "outputs": [
        {
          "internalType": "address",
          "name": "",
          "type": "address"
        }
      ],
      "stateMutability": "view",
      "type": "function"
    },
    {
      "inputs": [
        {
          "internalType": "address",
          "name": "from",
          "type": "address"
        },
        {
          "internalType": "address",
          "name": "to",
          "type": "address"
        },
        {
          "internalType": "uint256",
          "name": "tokenId",
          "type": "uint256"
        }
      ],
      "name": "safeTransferFrom",
      "outputs": [],
      "stateMutability": "nonpayable",
      "type": "function"
    },
    {
      "inputs": [
        {
          "internalType": "address",
          "name": "from",
          "type": "address"
        },
        {
          "internalType": "address",
          "name": "to",
          "type": "address"
        },
        {
          "internalType": "uint256",
          "name": "tokenId",
          "type": "uint256"
        },
        {
          "internalType": "bytes",
          "name": "data",
          "type": "bytes"
        }
      ],
      "name": "safeTransferFrom",
      "outputs": [],
      "stateMutability": "nonpayable",
      "type": "function"
    },
    {
      "inputs": [
        {
          "internalType": "address",
          "name": "operator",
          "type": "address"
        },
        {
          "internalType": "bool",
          "name": "approved",
          "type": "bool"
        }
      ],
      "name": "setApprovalForAll",
      "outputs": [],
      "stateMutability": "nonpayable",
      "type": "function"
    },
    {
      "inputs": [
        {
          "internalType": "bytes4",
          "name": "interfaceId",
          "type": "bytes4"
        }
      ],
      "name": "supportsInterface",
      "outputs": [
        {
          "internalType": "bool",
          "name": "",
          "type": "bool"
        }
      ],
      "stateMutability": "view",
      "type": "function"
    },
    {
      "inputs": [],
      "name": "symbol",
      "outputs": [
        {
          "internalType": "string",
          "name": "",
          "type": "string"
        }
      ],
      "stateMutability": "view",
      "type": "function"
    },
    {
      "inputs": [
        {
          "internalType": "uint256",
          "name": "_tokenId",
          "type": "uint256"
        }
      ],
      "name": "tokenURI",
      "outputs": [
        {
          "internalType": "string",
          "name": "",
          "type": "string"
        }
      ],
      "stateMutability": "view",
      "type": "function"
    },
    {
      "inputs": [
        {
          "internalType": "address",
          "name": "from",
          "type": "address"
        },
        {
          "internalType": "address",
          "name": "to",
          "type": "address"
        },
        {
          "internalType": "uint256",
          "name": "tokenId",
          "type": "uint256"
        }
      ],
      "name": "transferFrom",
      "outputs": [],
      "stateMutability": "nonpayable",
      "type": "function"
    }
  ],
  "bytecode": "0x608060405260006006553480156200001657600080fd5b5060405162005d0338038062005d0383398181016040528101906200003c919062000ad9565b6040518060400160405280600681526020017f4865726f657300000000000000000000000000000000000000000000000000008152506040518060400160405280600481526020017f4845524f000000000000000000000000000000000000000000000000000000008152508160009081620000b9919062000ee9565b508060019081620000cb919062000ee9565b5050506040518060c0016040528086815260200185815260200184815260200184815260200183815260200182815250600b600082015181600001908162000114919062000ee9565b5060208201518160010190816200012c919062000ee9565b5060408201518160020155606082015181600301556080820151816004015560a08201518160050155905050620002b96040518060600160405280602a815260200162005cd9602a9139600b6000018054620001889062000ce2565b80601f0160208091040260200160405190810160405280929190818152602001828054620001b69062000ce2565b8015620002075780601f10620001db5761010080835404028352916020019162000207565b820191906000526020600020905b815481529060010190602001808311620001e957829003601f168201915b5050505050600b60020154600b6001018054620002249062000ce2565b80601f0160208091040260200160405190810160405280929190818152602001828054620002529062000ce2565b8015620002a35780601f106200027757610100808354040283529160200191620002a3565b820191906000526020600020905b8154815290600101906020018083116200028557829003601f168201915b50505050506200064e60201b62001c781760201c565b60005b8a51811015620006265760086040518060e001604052808381526020018d8481518110620002ef57620002ee62000fd0565b5b602002602001015181526020018c848151811062000312576200031162000fd0565b5b602002602001015181526020018b848151811062000335576200033462000fd0565b5b602002602001015181526020018b848151811062000358576200035762000fd0565b5b602002602001015181526020018a84815181106200037b576200037a62000fd0565b5b602002602001015181526020018984815181106200039e576200039d62000fd0565b5b60200260200101518152509080600181540180825580915050600190039060005260206000209060070201600090919091909150600082015181600001556020820151816001019081620003f3919062000ee9565b5060408201518160020190816200040b919062000ee9565b50606082015181600301556080820151816004015560a0820151816005015560c0820151816006015550506000600882815481106200044f576200044e62000fd0565b5b90600052602060002090600702016040518060e001604052908160008201548152602001600182018054620004849062000ce2565b80601f0160208091040260200160405190810160405280929190818152602001828054620004b29062000ce2565b8015620005035780601f10620004d75761010080835404028352916020019162000503565b820191906000526020600020905b815481529060010190602001808311620004e557829003601f168201915b505050505081526020016002820180546200051e9062000ce2565b80601f01602080910402602001604051908101604052809291908181526020018280546200054c9062000ce2565b80156200059d5780601f1062000571576101008083540402835291602001916200059d565b820191906000526020600020905b8154815290600101906020018083116200057f57829003601f168201915b5050505050815260200160038201548152602001600482015481526020016005820154815260200160068201548152505090506200060e60405180606001604052806025815260200162005cb4602591398260200151836060015184604001516200064e60201b62001c781760201c565b506001816200061e91906200102e565b9050620002bc565b506200063e6007620006fa60201b62001d1a1760201c565b505050505050505050506200112e565b620006f4848484846040516024016200066b9493929190620010cc565b6040516020818303038152906040527f5d1a971a000000000000000000000000000000000000000000000000000000007bffffffffffffffffffffffffffffffffffffffffffffffffffffffff19166020820180517bffffffffffffffffffffffffffffffffffffffffffffffffffffffff83818316178352505050506200071060201b60201c565b50505050565b6001816000016000828254019250508190555050565b60008151905060006a636f6e736f6c652e6c6f679050602083016000808483855afa5050505050565b6000604051905090565b600080fd5b600080fd5b600080fd5b6000601f19601f8301169050919050565b7f4e487b7100000000000000000000000000000000000000000000000000000000600052604160045260246000fd5b6200079d8262000752565b810181811067ffffffffffffffff82111715620007bf57620007be62000763565b5b80604052505050565b6000620007d462000739565b9050620007e2828262000792565b919050565b600067ffffffffffffffff82111562000805576200080462000763565b5b602082029050602081019050919050565b600080fd5b600080fd5b600067ffffffffffffffff8211156200083e576200083d62000763565b5b620008498262000752565b9050602081019050919050565b60005b838110156200087657808201518184015260208101905062000859565b60008484015250505050565b600062000899620008938462000820565b620007c8565b905082815260208101848484011115620008b857620008b76200081b565b5b620008c584828562000856565b509392505050565b600082601f830112620008e557620008e46200074d565b5b8151620008f784826020860162000882565b91505092915050565b6000620009176200091184620007e7565b620007c8565b905080838252602082019050602084028301858111156200093d576200093c62000816565b5b835b818110156200098b57805167ffffffffffffffff8111156200096657620009656200074d565b5b808601620009758982620008cd565b855260208501945050506020810190506200093f565b5050509392505050565b600082601f830112620009ad57620009ac6200074d565b5b8151620009bf84826020860162000900565b91505092915050565b600067ffffffffffffffff821115620009e657620009e562000763565b5b602082029050602081019050919050565b6000819050919050565b62000a0c81620009f7565b811462000a1857600080fd5b50565b60008151905062000a2c8162000a01565b92915050565b600062000a4962000a4384620009c8565b620007c8565b9050808382526020820190506020840283018581111562000a6f5762000a6e62000816565b5b835b8181101562000a9c578062000a87888262000a1b565b84526020840193505060208101905062000a71565b5050509392505050565b600082601f83011262000abe5762000abd6200074d565b5b815162000ad084826020860162000a32565b91505092915050565b6000806000806000806000806000806101408b8d03121562000b005762000aff62000743565b5b60008b015167ffffffffffffffff81111562000b215762000b2062000748565b5b62000b2f8d828e0162000995565b9a505060208b015167ffffffffffffffff81111562000b535762000b5262000748565b5b62000b618d828e0162000995565b99505060408b015167ffffffffffffffff81111562000b855762000b8462000748565b5b62000b938d828e0162000aa6565b98505060608b015167ffffffffffffffff81111562000bb75762000bb662000748565b5b62000bc58d828e0162000aa6565b97505060808b015167ffffffffffffffff81111562000be95762000be862000748565b5b62000bf78d828e0162000aa6565b96505060a08b015167ffffffffffffffff81111562000c1b5762000c1a62000748565b5b62000c298d828e01620008cd565b95505060c08b015167ffffffffffffffff81111562000c4d5762000c4c62000748565b5b62000c5b8d828e01620008cd565b94505060e062000c6e8d828e0162000a1b565b93505061010062000c828d828e0162000a1b565b92505061012062000c968d828e0162000a1b565b9150509295989b9194979a5092959850565b600081519050919050565b7f4e487b7100000000000000000000000000000000000000000000000000000000600052602260045260246000fd5b6000600282049050600182168062000cfb57607f821691505b60208210810362000d115762000d1062000cb3565b5b50919050565b60008190508160005260206000209050919050565b60006020601f8301049050919050565b600082821b905092915050565b60006008830262000d7b7fffffffffffffffffffffffffffffffffffffffffffffffffffffffffffffffff8262000d3c565b62000d87868362000d3c565b95508019841693508086168417925050509392505050565b6000819050919050565b600062000dca62000dc462000dbe84620009f7565b62000d9f565b620009f7565b9050919050565b6000819050919050565b62000de68362000da9565b62000dfe62000df58262000dd1565b84845462000d49565b825550505050565b600090565b62000e1562000e06565b62000e2281848462000ddb565b505050565b5b8181101562000e4a5762000e3e60008262000e0b565b60018101905062000e28565b5050565b601f82111562000e995762000e638162000d17565b62000e6e8462000d2c565b8101602085101562000e7e578190505b62000e9662000e8d8562000d2c565b83018262000e27565b50505b505050565b600082821c905092915050565b600062000ebe6000198460080262000e9e565b1980831691505092915050565b600062000ed9838362000eab565b9150826002028217905092915050565b62000ef48262000ca8565b67ffffffffffffffff81111562000f105762000f0f62000763565b5b62000f1c825462000ce2565b62000f2982828562000e4e565b600060209050601f83116001811462000f61576000841562000f4c578287015190505b62000f58858262000ecb565b86555062000fc8565b601f19841662000f718662000d17565b60005b8281101562000f9b5784890151825560018201915060208501945060208101905062000f74565b8683101562000fbb578489015162000fb7601f89168262000eab565b8355505b6001600288020188555050505b505050505050565b7f4e487b7100000000000000000000000000000000000000000000000000000000600052603260045260246000fd5b7f4e487b7100000000000000000000000000000000000000000000000000000000600052601160045260246000fd5b60006200103b82620009f7565b91506200104883620009f7565b925082820190508082111562001063576200106262000fff565b5b92915050565b600082825260208201905092915050565b6000620010878262000ca8565b62001093818562001069565b9350620010a581856020860162000856565b620010b08162000752565b840191505092915050565b620010c681620009f7565b82525050565b60006080820190508181036000830152620010e881876200107a565b90508181036020830152620010fe81866200107a565b90506200110f6040830185620010bb565b81810360608301526200112381846200107a565b905095945050505050565b614b76806200113e6000396000f3fe608060405234801561001057600080fd5b50600436106101375760003560e01c80637df124a1116100b8578063b88d4fde1161007c578063b88d4fde1461036d578063c87b56dd14610389578063c8cf27f4146103b9578063d4f24c5b146103d7578063e985e9c5146103e1578063f8b81ef71461041157610137565b80637df124a1146102aa57806395d89b41146102da57806398da4c95146102f8578063a22cb4651461032e578063a9c326791461034a57610137565b80631a227bf3116100ff5780631a227bf3146101f457806323b872dd1461021257806342842e0e1461022e5780636352211e1461024a57806370a082311461027a57610137565b806301ffc9a71461013c5780630665f9611461016c57806306fdde031461018a578063081812fc146101a8578063095ea7b3146101d8575b600080fd5b61015660048036038101906101519190612e1e565b61042d565b6040516101639190612e66565b60405180910390f35b61017461050f565b6040516101819190612fba565b60405180910390f35b610192610675565b60405161019f9190613026565b60405180910390f35b6101c260048036038101906101bd9190613074565b610707565b6040516101cf91906130e2565b60405180910390f35b6101f260048036038101906101ed9190613129565b61074d565b005b6101fc610864565b60405161020991906132ce565b60405180910390f35b61022c600480360381019061022791906132f0565b610a19565b005b610248600480360381019061024391906132f0565b610a79565b005b610264600480360381019061025f9190613074565b610a99565b60405161027191906130e2565b60405180910390f35b610294600480360381019061028f9190613343565b610b4a565b6040516102a1919061337f565b60405180910390f35b6102c460048036038101906102bf9190613343565b610c01565b6040516102d1919061337f565b60405180910390f35b6102e2610c19565b6040516102ef9190613026565b60405180910390f35b610312600480360381019061030d9190613074565b610cab565b604051610325979695949392919061339a565b60405180910390f35b61034860048036038101906103439190613443565b610dfd565b005b610352610e13565b60405161036496959493929190613483565b60405180910390f35b61038760048036038101906103829190613627565b610f4d565b005b6103a3600480360381019061039e9190613074565b610faf565b6040516103b09190613026565b60405180910390f35b6103c16111e8565b6040516103ce919061374d565b60405180910390f35b6103df6113ca565b005b6103fb60048036038101906103f6919061376f565b611887565b6040516104089190612e66565b60405180910390f35b61042b60048036038101906104269190613074565b61191b565b005b60007f80ac58cd000000000000000000000000000000000000000000000000000000007bffffffffffffffffffffffffffffffffffffffffffffffffffffffff1916827bffffffffffffffffffffffffffffffffffffffffffffffffffffffff191614806104f857507f5b5e139f000000000000000000000000000000000000000000000000000000007bffffffffffffffffffffffffffffffffffffffffffffffffffffffff1916827bffffffffffffffffffffffffffffffffffffffffffffffffffffffff1916145b80610508575061050782611d30565b5b9050919050565b610517612d3f565b600b6040518060c0016040529081600082018054610534906137de565b80601f0160208091040260200160405190810160405280929190818152602001828054610560906137de565b80156105ad5780601f10610582576101008083540402835291602001916105ad565b820191906000526020600020905b81548152906001019060200180831161059057829003601f168201915b505050505081526020016001820180546105c6906137de565b80601f01602080910402602001604051908101604052809291908181526020018280546105f2906137de565b801561063f5780601f106106145761010080835404028352916020019161063f565b820191906000526020600020905b81548152906001019060200180831161062257829003601f168201915b50505050508152602001600282015481526020016003820154815260200160048201548152602001600582015481525050905090565b606060008054610684906137de565b80601f01602080910402602001604051908101604052809291908181526020018280546106b0906137de565b80156106fd5780601f106106d2576101008083540402835291602001916106fd565b820191906000526020600020905b8154815290600101906020018083116106e057829003601f168201915b5050505050905090565b600061071282611d9a565b6004600083815260200190815260200160002060009054906101000a900473ffffffffffffffffffffffffffffffffffffffff169050919050565b600061075882610a99565b90508073ffffffffffffffffffffffffffffffffffffffff168373ffffffffffffffffffffffffffffffffffffffff16036107c8576040517f08c379a00000000000000000000000000000000000000000000000000000000081526004016107bf90613881565b60405180910390fd5b8073ffffffffffffffffffffffffffffffffffffffff166107e7611de5565b73ffffffffffffffffffffffffffffffffffffffff161480610816575061081581610810611de5565b611887565b5b610855576040517f08c379a000000000000000000000000000000000000000000000000000000000815260040161084c90613913565b60405180910390fd5b61085f8383611ded565b505050565b60606008805480602002602001604051908101604052809291908181526020016000905b82821015610a1057838290600052602060002090600702016040518060e0016040529081600082015481526020016001820180546108c5906137de565b80601f01602080910402602001604051908101604052809291908181526020018280546108f1906137de565b801561093e5780601f106109135761010080835404028352916020019161093e565b820191906000526020600020905b81548152906001019060200180831161092157829003601f168201915b50505050508152602001600282018054610957906137de565b80601f0160208091040260200160405190810160405280929190818152602001828054610983906137de565b80156109d05780601f106109a5576101008083540402835291602001916109d0565b820191906000526020600020905b8154815290600101906020018083116109b357829003601f168201915b5050505050815260200160038201548152602001600482015481526020016005820154815260200160068201548152505081526020019060010190610888565b50505050905090565b610a2a610a24611de5565b82611ea6565b610a69576040517f08c379a0000000000000000000000000000000000000000000000000000000008152600401610a60906139a5565b60405180910390fd5b610a74838383611f3b565b505050565b610a9483838360405180602001604052806000815250610f4d565b505050565b6000806002600084815260200190815260200160002060009054906101000a900473ffffffffffffffffffffffffffffffffffffffff169050600073ffffffffffffffffffffffffffffffffffffffff168173ffffffffffffffffffffffffffffffffffffffff1603610b41576040517f08c379a0000000000000000000000000000000000000000000000000000000008152600401610b3890613a11565b60405180910390fd5b80915050919050565b60008073ffffffffffffffffffffffffffffffffffffffff168273ffffffffffffffffffffffffffffffffffffffff1603610bba576040517f08c379a0000000000000000000000000000000000000000000000000000000008152600401610bb190613aa3565b60405180910390fd5b600360008373ffffffffffffffffffffffffffffffffffffffff1673ffffffffffffffffffffffffffffffffffffffff168152602001908152602001600020549050919050565b600a6020528060005260406000206000915090505481565b606060018054610c28906137de565b80601f0160208091040260200160405190810160405280929190818152602001828054610c54906137de565b8015610ca15780601f10610c7657610100808354040283529160200191610ca1565b820191906000526020600020905b815481529060010190602001808311610c8457829003601f168201915b5050505050905090565b6009602052806000526040600020600091509050806000015490806001018054610cd4906137de565b80601f0160208091040260200160405190810160405280929190818152602001828054610d00906137de565b8015610d4d5780601f10610d2257610100808354040283529160200191610d4d565b820191906000526020600020905b815481529060010190602001808311610d3057829003601f168201915b505050505090806002018054610d62906137de565b80601f0160208091040260200160405190810160405280929190818152602001828054610d8e906137de565b8015610ddb5780601f10610db057610100808354040283529160200191610ddb565b820191906000526020600020905b815481529060010190602001808311610dbe57829003601f168201915b5050505050908060030154908060040154908060050154908060060154905087565b610e0f610e08611de5565b83836121a1565b5050565b600b806000018054610e24906137de565b80601f0160208091040260200160405190810160405280929190818152602001828054610e50906137de565b8015610e9d5780601f10610e7257610100808354040283529160200191610e9d565b820191906000526020600020905b815481529060010190602001808311610e8057829003601f168201915b505050505090806001018054610eb2906137de565b80601f0160208091040260200160405190810160405280929190818152602001828054610ede906137de565b8015610f2b5780601f10610f0057610100808354040283529160200191610f2b565b820191906000526020600020905b815481529060010190602001808311610f0e57829003601f168201915b5050505050908060020154908060030154908060040154908060050154905086565b610f5e610f58611de5565b83611ea6565b610f9d576040517f08c379a0000000000000000000000000000000000000000000000000000000008152600401610f94906139a5565b60405180910390fd5b610fa98484848461230d565b50505050565b60606000600960008481526020019081526020016000206040518060e001604052908160008201548152602001600182018054610feb906137de565b80601f0160208091040260200160405190810160405280929190818152602001828054611017906137de565b80156110645780601f1061103957610100808354040283529160200191611064565b820191906000526020600020905b81548152906001019060200180831161104757829003601f168201915b5050505050815260200160028201805461107d906137de565b80601f01602080910402602001604051908101604052809291908181526020018280546110a9906137de565b80156110f65780601f106110cb576101008083540402835291602001916110f6565b820191906000526020600020905b8154815290600101906020018083116110d957829003601f168201915b50505050508152602001600382015481526020016004820154815260200160058201548152602001600682015481525050905060006111388260600151612369565b905060006111498360800151612369565b9050600061115a8460a00151612369565b9050600061116b8560c00151612369565b905060006111b386602001516111808a612369565b88604001518888888860405160200161119f9796959493929190613e43565b6040516020818303038152906040526124c9565b90506000816040516020016111c89190613f4c565b604051602081830303815290604052905080975050505050505050919050565b6111f0612d75565b6000600a60003373ffffffffffffffffffffffffffffffffffffffff1673ffffffffffffffffffffffffffffffffffffffff16815260200190815260200160002054905060008111156113b957600960008281526020019081526020016000206040518060e001604052908160008201548152602001600182018054611275906137de565b80601f01602080910402602001604051908101604052809291908181526020018280546112a1906137de565b80156112ee5780601f106112c3576101008083540402835291602001916112ee565b820191906000526020600020905b8154815290600101906020018083116112d157829003601f168201915b50505050508152602001600282018054611307906137de565b80601f0160208091040260200160405190810160405280929190818152602001828054611333906137de565b80156113805780601f1061135557610100808354040283529160200191611380565b820191906000526020600020905b81548152906001019060200180831161136357829003601f168201915b505050505081526020016003820154815260200160048201548152602001600582015481526020016006820154815250509150506113c7565b6113c1612d75565b80925050505b90565b6000600a60003373ffffffffffffffffffffffffffffffffffffffff1673ffffffffffffffffffffffffffffffffffffffff16815260200190815260200160002054905060006009600083815260200190815260200160002090506000611431600a612660565b90506114eb6040518060600160405280603c8152602001614b05603c913983600101805461145e906137de565b80601f016020809104026020016040519081016040528092919081815260200182805461148a906137de565b80156114d75780601f106114ac576101008083540402835291602001916114d7565b820191906000526020600020905b8154815290600101906020018083116114ba57829003601f168201915b5050505050846003015485600501546126bc565b6115c36040518060400160405280601b81526020017f426f73732025732068617320257320485020616e642025732041440000000000815250600b6000018054611534906137de565b80601f0160208091040260200160405190810160405280929190818152602001828054611560906137de565b80156115ad5780601f10611582576101008083540402835291602001916115ad565b820191906000526020600020905b81548152906001019060200180831161159057829003601f168201915b5050505050600b60020154600b600401546126bc565b600082600301541161160a576040517f08c379a000000000000000000000000000000000000000000000000000000000815260040161160190613fe0565b60405180910390fd5b6000600b6002015411611652576040517f08c379a000000000000000000000000000000000000000000000000000000000815260040161164990614072565b60405180910390fd5b6000826003015411611699576040517f08c379a000000000000000000000000000000000000000000000000000000000815260040161169090613fe0565b60405180910390fd5b6000600b60020154116116e1576040517f08c379a00000000000000000000000000000000000000000000000000000000081526004016116d890614072565b60405180910390fd5b8160050154600b600201541015611702576000600b60020181905550611772565b80600b600501541015611732578160050154600b6002015461172491906140c1565b600b60020181905550611771565b6117706040518060400160405280601e81526020017f54686520447261676f6e20626c6f636b6564207468652061747461636b21000081525061275e565b5b5b600b60040154826003015410156117d057600082600301819055506117cb6040518060400160405280600e81526020017f596f75206861766520646965642100000000000000000000000000000000000081525061275e565b61183e565b80826006015410156117fe57600b6004015482600301546117f191906140c1565b826003018190555061183d565b61183c6040518060400160405280602081526020017f596f7520626c6f636b65642074686520447261676f6e27732061747461636b2181525061275e565b5b5b7f32bd565ee3f2cb5ddd742bbecd6048d3e9abe90b3827a40c2b72d232e71e3c9d33600b60020154846003015460405161187a939291906140f5565b60405180910390a1505050565b6000600560008473ffffffffffffffffffffffffffffffffffffffff1673ffffffffffffffffffffffffffffffffffffffff16815260200190815260200160002060008373ffffffffffffffffffffffffffffffffffffffff1673ffffffffffffffffffffffffffffffffffffffff16815260200190815260200160002060009054906101000a900460ff16905092915050565b600061192760076127f7565b90506119333382612805565b6040518060e00160405280838152602001600884815481106119585761195761412c565b5b90600052602060002090600702016001018054611974906137de565b80601f01602080910402602001604051908101604052809291908181526020018280546119a0906137de565b80156119ed5780601f106119c2576101008083540402835291602001916119ed565b820191906000526020600020905b8154815290600101906020018083116119d057829003601f168201915b5050505050815260200160088481548110611a0b57611a0a61412c565b5b90600052602060002090600702016002018054611a27906137de565b80601f0160208091040260200160405190810160405280929190818152602001828054611a53906137de565b8015611aa05780601f10611a7557610100808354040283529160200191611aa0565b820191906000526020600020905b815481529060010190602001808311611a8357829003601f168201915b5050505050815260200160088481548110611abe57611abd61412c565b5b906000526020600020906007020160030154815260200160088481548110611ae957611ae861412c565b5b906000526020600020906007020160040154815260200160088481548110611b1457611b1361412c565b5b906000526020600020906007020160050154815260200160088481548110611b3f57611b3e61412c565b5b90600052602060002090600702016006015481525060096000838152602001908152602001600020600082015181600001556020820151816001019081611b869190614307565b506040820151816002019081611b9c9190614307565b50606082015181600301556080820151816004015560a0820151816005015560c08201518160060155905050611beb6040518060600160405280602e8152602001614ad7602e91398284612823565b80600a60003373ffffffffffffffffffffffffffffffffffffffff1673ffffffffffffffffffffffffffffffffffffffff168152602001908152602001600020819055507f4bc303fd457a97b4691b9af582ce71868a3d258638c8d4f8c60988a0f0bfb8cd338284604051611c62939291906140f5565b60405180910390a1611c746007611d1a565b5050565b611d1484848484604051602401611c9294939291906143d9565b6040516020818303038152906040527f5d1a971a000000000000000000000000000000000000000000000000000000007bffffffffffffffffffffffffffffffffffffffffffffffffffffffff19166020820180517bffffffffffffffffffffffffffffffffffffffffffffffffffffffff83818316178352505050506128c2565b50505050565b6001816000016000828254019250508190555050565b60007f01ffc9a7000000000000000000000000000000000000000000000000000000007bffffffffffffffffffffffffffffffffffffffffffffffffffffffff1916827bffffffffffffffffffffffffffffffffffffffffffffffffffffffff1916149050919050565b611da3816128eb565b611de2576040517f08c379a0000000000000000000000000000000000000000000000000000000008152600401611dd990613a11565b60405180910390fd5b50565b600033905090565b816004600083815260200190815260200160002060006101000a81548173ffffffffffffffffffffffffffffffffffffffff021916908373ffffffffffffffffffffffffffffffffffffffff160217905550808273ffffffffffffffffffffffffffffffffffffffff16611e6083610a99565b73ffffffffffffffffffffffffffffffffffffffff167f8c5be1e5ebec7d5bd14f71427d1e84f3dd0314c0f7b2291e5b200ac8c7c3b92560405160405180910390a45050565b600080611eb283610a99565b90508073ffffffffffffffffffffffffffffffffffffffff168473ffffffffffffffffffffffffffffffffffffffff161480611ef45750611ef38185611887565b5b80611f3257508373ffffffffffffffffffffffffffffffffffffffff16611f1a84610707565b73ffffffffffffffffffffffffffffffffffffffff16145b91505092915050565b8273ffffffffffffffffffffffffffffffffffffffff16611f5b82610a99565b73ffffffffffffffffffffffffffffffffffffffff1614611fb1576040517f08c379a0000000000000000000000000000000000000000000000000000000008152600401611fa8906144a5565b60405180910390fd5b600073ffffffffffffffffffffffffffffffffffffffff168273ffffffffffffffffffffffffffffffffffffffff1603612020576040517f08c379a000000000000000000000000000000000000000000000000000000000815260040161201790614537565b60405180910390fd5b61202b838383612957565b612036600082611ded565b6001600360008573ffffffffffffffffffffffffffffffffffffffff1673ffffffffffffffffffffffffffffffffffffffff168152602001908152602001600020600082825461208691906140c1565b925050819055506001600360008473ffffffffffffffffffffffffffffffffffffffff1673ffffffffffffffffffffffffffffffffffffffff16815260200190815260200160002060008282546120dd9190614557565b92505081905550816002600083815260200190815260200160002060006101000a81548173ffffffffffffffffffffffffffffffffffffffff021916908373ffffffffffffffffffffffffffffffffffffffff160217905550808273ffffffffffffffffffffffffffffffffffffffff168473ffffffffffffffffffffffffffffffffffffffff167fddf252ad1be2c89b69c2b068fc378daa952ba7f163c4a11628f55a4df523b3ef60405160405180910390a461219c83838361295c565b505050565b8173ffffffffffffffffffffffffffffffffffffffff168373ffffffffffffffffffffffffffffffffffffffff160361220f576040517f08c379a0000000000000000000000000000000000000000000000000000000008152600401612206906145d7565b60405180910390fd5b80600560008573ffffffffffffffffffffffffffffffffffffffff1673ffffffffffffffffffffffffffffffffffffffff16815260200190815260200160002060008473ffffffffffffffffffffffffffffffffffffffff1673ffffffffffffffffffffffffffffffffffffffff16815260200190815260200160002060006101000a81548160ff0219169083151502179055508173ffffffffffffffffffffffffffffffffffffffff168373ffffffffffffffffffffffffffffffffffffffff167f17307eab39ab6107e8899845ad3d59bd9653f200f220920489ca2b5937696c31836040516123009190612e66565b60405180910390a3505050565b612318848484611f3b565b61232484848484612961565b612363576040517f08c379a000000000000000000000000000000000000000000000000000000000815260040161235a90614669565b60405180910390fd5b50505050565b6060600082036123b0576040518060400160405280600181526020017f300000000000000000000000000000000000000000000000000000000000000081525090506124c4565b600082905060005b600082146123e25780806123cb90614689565b915050600a826123db9190614700565b91506123b8565b60008167ffffffffffffffff8111156123fe576123fd6134fc565b5b6040519080825280601f01601f1916602001820160405280156124305781602001600182028036833780820191505090505b5090505b600085146124bd5760018261244991906140c1565b9150600a856124589190614731565b60306124649190614557565b60f81b81838151811061247a5761247961412c565b5b60200101907effffffffffffffffffffffffffffffffffffffffffffffffffffffffffffff1916908160001a905350600a856124b69190614700565b9450612434565b8093505050505b919050565b6060600082519050600081036124f1576040518060200160405280600081525091505061265b565b600060036002836125029190614557565b61250c9190614700565b60046125189190614762565b905060006020826125299190614557565b67ffffffffffffffff811115612542576125416134fc565b5b6040519080825280601f01601f1916602001820160405280156125745781602001600182028036833780820191505090505b5090506000604051806060016040528060408152602001614a97604091399050600181016020830160005b868110156126185760038101905062ffffff818a015116603f8160121c168401518060081b905060ff603f83600c1c1686015116810190508060081b905060ff603f8360061c1686015116810190508060081b905060ff603f831686015116810190508060e01b9050808452600484019350505061259f565b50600386066001811461263257600281146126425761264d565b613d3d60f01b600283035261264d565b603d60f81b60018303525b508484525050819450505050505b919050565b60006006600081548092919061267590614689565b91905055508142336006546040516020016126929392919061480d565b6040516020818303038152906040528051906020012060001c6126b59190614731565b9050919050565b612758848484846040516024016126d6949392919061484a565b6040516020818303038152906040527ff45d7d2c000000000000000000000000000000000000000000000000000000007bffffffffffffffffffffffffffffffffffffffffffffffffffffffff19166020820180517bffffffffffffffffffffffffffffffffffffffffffffffffffffffff83818316178352505050506128c2565b50505050565b6127f4816040516024016127729190613026565b6040516020818303038152906040527f41304fac000000000000000000000000000000000000000000000000000000007bffffffffffffffffffffffffffffffffffffffffffffffffffffffff19166020820180517bffffffffffffffffffffffffffffffffffffffffffffffffffffffff83818316178352505050506128c2565b50565b600081600001549050919050565b61281f828260405180602001604052806000815250612ae8565b5050565b6128bd83838360405160240161283b9392919061489d565b6040516020818303038152906040527fca47c4eb000000000000000000000000000000000000000000000000000000007bffffffffffffffffffffffffffffffffffffffffffffffffffffffff19166020820180517bffffffffffffffffffffffffffffffffffffffffffffffffffffffff83818316178352505050506128c2565b505050565b60008151905060006a636f6e736f6c652e6c6f679050602083016000808483855afa5050505050565b60008073ffffffffffffffffffffffffffffffffffffffff166002600084815260200190815260200160002060009054906101000a900473ffffffffffffffffffffffffffffffffffffffff1673ffffffffffffffffffffffffffffffffffffffff1614159050919050565b505050565b505050565b60006129828473ffffffffffffffffffffffffffffffffffffffff16612b43565b15612adb578373ffffffffffffffffffffffffffffffffffffffff1663150b7a026129ab611de5565b8786866040518563ffffffff1660e01b81526004016129cd9493929190614930565b6020604051808303816000875af1925050508015612a0957506040513d601f19601f82011682018060405250810190612a069190614991565b60015b612a8b573d8060008114612a39576040519150601f19603f3d011682016040523d82523d6000602084013e612a3e565b606091505b506000815103612a83576040517f08c379a0000000000000000000000000000000000000000000000000000000008152600401612a7a90614669565b60405180910390fd5b805181602001fd5b63150b7a0260e01b7bffffffffffffffffffffffffffffffffffffffffffffffffffffffff1916817bffffffffffffffffffffffffffffffffffffffffffffffffffffffff191614915050612ae0565b600190505b949350505050565b612af28383612b66565b612aff6000848484612961565b612b3e576040517f08c379a0000000000000000000000000000000000000000000000000000000008152600401612b3590614669565b60405180910390fd5b505050565b6000808273ffffffffffffffffffffffffffffffffffffffff163b119050919050565b600073ffffffffffffffffffffffffffffffffffffffff168273ffffffffffffffffffffffffffffffffffffffff1603612bd5576040517f08c379a0000000000000000000000000000000000000000000000000000000008152600401612bcc90614a0a565b60405180910390fd5b612bde816128eb565b15612c1e576040517f08c379a0000000000000000000000000000000000000000000000000000000008152600401612c1590614a76565b60405180910390fd5b612c2a60008383612957565b6001600360008473ffffffffffffffffffffffffffffffffffffffff1673ffffffffffffffffffffffffffffffffffffffff1681526020019081526020016000206000828254612c7a9190614557565b92505081905550816002600083815260200190815260200160002060006101000a81548173ffffffffffffffffffffffffffffffffffffffff021916908373ffffffffffffffffffffffffffffffffffffffff160217905550808273ffffffffffffffffffffffffffffffffffffffff16600073ffffffffffffffffffffffffffffffffffffffff167fddf252ad1be2c89b69c2b068fc378daa952ba7f163c4a11628f55a4df523b3ef60405160405180910390a4612d3b6000838361295c565b5050565b6040518060c001604052806060815260200160608152602001600081526020016000815260200160008152602001600081525090565b6040518060e00160405280600081526020016060815260200160608152602001600081526020016000815260200160008152602001600081525090565b6000604051905090565b600080fd5b600080fd5b60007fffffffff0000000000000000000000000000000000000000000000000000000082169050919050565b612dfb81612dc6565b8114612e0657600080fd5b50565b600081359050612e1881612df2565b92915050565b600060208284031215612e3457612e33612dbc565b5b6000612e4284828501612e09565b91505092915050565b60008115159050919050565b612e6081612e4b565b82525050565b6000602082019050612e7b6000830184612e57565b92915050565b600081519050919050565b600082825260208201905092915050565b60005b83811015612ebb578082015181840152602081019050612ea0565b60008484015250505050565b6000601f19601f8301169050919050565b6000612ee382612e81565b612eed8185612e8c565b9350612efd818560208601612e9d565b612f0681612ec7565b840191505092915050565b6000819050919050565b612f2481612f11565b82525050565b600060c0830160008301518482036000860152612f478282612ed8565b91505060208301518482036020860152612f618282612ed8565b9150506040830151612f766040860182612f1b565b506060830151612f896060860182612f1b565b506080830151612f9c6080860182612f1b565b5060a0830151612faf60a0860182612f1b565b508091505092915050565b60006020820190508181036000830152612fd48184612f2a565b905092915050565b600082825260208201905092915050565b6000612ff882612e81565b6130028185612fdc565b9350613012818560208601612e9d565b61301b81612ec7565b840191505092915050565b600060208201905081810360008301526130408184612fed565b905092915050565b61305181612f11565b811461305c57600080fd5b50565b60008135905061306e81613048565b92915050565b60006020828403121561308a57613089612dbc565b5b60006130988482850161305f565b91505092915050565b600073ffffffffffffffffffffffffffffffffffffffff82169050919050565b60006130cc826130a1565b9050919050565b6130dc816130c1565b82525050565b60006020820190506130f760008301846130d3565b92915050565b613106816130c1565b811461311157600080fd5b50565b600081359050613123816130fd565b92915050565b600080604083850312156131405761313f612dbc565b5b600061314e85828601613114565b925050602061315f8582860161305f565b9150509250929050565b600081519050919050565b600082825260208201905092915050565b6000819050602082019050919050565b600060e0830160008301516131ad6000860182612f1b565b50602083015184820360208601526131c58282612ed8565b915050604083015184820360408601526131df8282612ed8565b91505060608301516131f46060860182612f1b565b5060808301516132076080860182612f1b565b5060a083015161321a60a0860182612f1b565b5060c083015161322d60c0860182612f1b565b508091505092915050565b60006132448383613195565b905092915050565b6000602082019050919050565b600061326482613169565b61326e8185613174565b93508360208202850161328085613185565b8060005b858110156132bc578484038952815161329d8582613238565b94506132a88361324c565b925060208a01995050600181019050613284565b50829750879550505050505092915050565b600060208201905081810360008301526132e88184613259565b905092915050565b60008060006060848603121561330957613308612dbc565b5b600061331786828701613114565b935050602061332886828701613114565b92505060406133398682870161305f565b9150509250925092565b60006020828403121561335957613358612dbc565b5b600061336784828501613114565b91505092915050565b61337981612f11565b82525050565b60006020820190506133946000830184613370565b92915050565b600060e0820190506133af600083018a613370565b81810360208301526133c18189612fed565b905081810360408301526133d58188612fed565b90506133e46060830187613370565b6133f16080830186613370565b6133fe60a0830185613370565b61340b60c0830184613370565b98975050505050505050565b61342081612e4b565b811461342b57600080fd5b50565b60008135905061343d81613417565b92915050565b6000806040838503121561345a57613459612dbc565b5b600061346885828601613114565b92505060206134798582860161342e565b9150509250929050565b600060c082019050818103600083015261349d8189612fed565b905081810360208301526134b18188612fed565b90506134c06040830187613370565b6134cd6060830186613370565b6134da6080830185613370565b6134e760a0830184613370565b979650505050505050565b600080fd5b600080fd5b7f4e487b7100000000000000000000000000000000000000000000000000000000600052604160045260246000fd5b61353482612ec7565b810181811067ffffffffffffffff82111715613553576135526134fc565b5b80604052505050565b6000613566612db2565b9050613572828261352b565b919050565b600067ffffffffffffffff821115613592576135916134fc565b5b61359b82612ec7565b9050602081019050919050565b82818337600083830152505050565b60006135ca6135c584613577565b61355c565b9050828152602081018484840111156135e6576135e56134f7565b5b6135f18482856135a8565b509392505050565b600082601f83011261360e5761360d6134f2565b5b813561361e8482602086016135b7565b91505092915050565b6000806000806080858703121561364157613640612dbc565b5b600061364f87828801613114565b945050602061366087828801613114565b93505060406136718782880161305f565b925050606085013567ffffffffffffffff81111561369257613691612dc1565b5b61369e878288016135f9565b91505092959194509250565b600060e0830160008301516136c26000860182612f1b565b50602083015184820360208601526136da8282612ed8565b915050604083015184820360408601526136f48282612ed8565b91505060608301516137096060860182612f1b565b50608083015161371c6080860182612f1b565b5060a083015161372f60a0860182612f1b565b5060c083015161374260c0860182612f1b565b508091505092915050565b6000602082019050818103600083015261376781846136aa565b905092915050565b6000806040838503121561378657613785612dbc565b5b600061379485828601613114565b92505060206137a585828601613114565b9150509250929050565b7f4e487b7100000000000000000000000000000000000000000000000000000000600052602260045260246000fd5b600060028204905060018216806137f657607f821691505b602082108103613809576138086137af565b5b50919050565b7f4552433732313a20617070726f76616c20746f2063757272656e74206f776e6560008201527f7200000000000000000000000000000000000000000000000000000000000000602082015250565b600061386b602183612fdc565b91506138768261380f565b604082019050919050565b6000602082019050818103600083015261389a8161385e565b9050919050565b7f4552433732313a20617070726f76652063616c6c6572206973206e6f7420746f60008201527f6b656e206f776e6572206e6f7220617070726f76656420666f7220616c6c0000602082015250565b60006138fd603e83612fdc565b9150613908826138a1565b604082019050919050565b6000602082019050818103600083015261392c816138f0565b9050919050565b7f4552433732313a2063616c6c6572206973206e6f7420746f6b656e206f776e6560008201527f72206e6f7220617070726f766564000000000000000000000000000000000000602082015250565b600061398f602e83612fdc565b915061399a82613933565b604082019050919050565b600060208201905081810360008301526139be81613982565b9050919050565b7f4552433732313a20696e76616c696420746f6b656e2049440000000000000000600082015250565b60006139fb601883612fdc565b9150613a06826139c5565b602082019050919050565b60006020820190508181036000830152613a2a816139ee565b9050919050565b7f4552433732313a2061646472657373207a65726f206973206e6f74206120766160008201527f6c6964206f776e65720000000000000000000000000000000000000000000000602082015250565b6000613a8d602983612fdc565b9150613a9882613a31565b604082019050919050565b60006020820190508181036000830152613abc81613a80565b9050919050565b600081905092915050565b7f7b226e616d65223a202200000000000000000000000000000000000000000000600082015250565b6000613b04600a83613ac3565b9150613b0f82613ace565b600a82019050919050565b6000613b2582612e81565b613b2f8185613ac3565b9350613b3f818560208601612e9d565b80840191505092915050565b7f202d2d204e465420233a20000000000000000000000000000000000000000000600082015250565b6000613b81600b83613ac3565b9150613b8c82613b4b565b600b82019050919050565b7f222c20226465736372697074696f6e223a20225468697320697320616e204e4660008201527f542074686174206c6574732070656f706c6520706c617920696e20746865206760208201527f616d65204d657461766572736520536c6179657221222c2022696d616765223a60408201527f2022000000000000000000000000000000000000000000000000000000000000606082015250565b6000613c3f606283613ac3565b9150613c4a82613b97565b606282019050919050565b7f222c202261747472696275746573223a205b207b202274726169745f7479706560008201527f223a20224865616c746820506f696e7473222c202276616c7565223a20000000602082015250565b6000613cb1603d83613ac3565b9150613cbc82613c55565b603d82019050919050565b7f2c20226d61785f76616c7565223a000000000000000000000000000000000000600082015250565b6000613cfd600e83613ac3565b9150613d0882613cc7565b600e82019050919050565b7f7d2c207b202274726169745f74797065223a202241747461636b2044616d616760008201527f65222c202276616c7565223a2000000000000000000000000000000000000000602082015250565b6000613d6f602d83613ac3565b9150613d7a82613d13565b602d82019050919050565b7f7d2c207b202274726169745f74797065223a2022446566656e7365222c20227660008201527f616c7565223a2000000000000000000000000000000000000000000000000000602082015250565b6000613de1602783613ac3565b9150613dec82613d85565b602782019050919050565b7f7d5d7d0000000000000000000000000000000000000000000000000000000000600082015250565b6000613e2d600383613ac3565b9150613e3882613df7565b600382019050919050565b6000613e4e82613af7565b9150613e5a828a613b1a565b9150613e6582613b74565b9150613e718289613b1a565b9150613e7c82613c32565b9150613e888288613b1a565b9150613e9382613ca4565b9150613e9f8287613b1a565b9150613eaa82613cf0565b9150613eb68286613b1a565b9150613ec182613d62565b9150613ecd8285613b1a565b9150613ed882613dd4565b9150613ee48284613b1a565b9150613eef82613e20565b915081905098975050505050505050565b7f646174613a6170706c69636174696f6e2f6a736f6e3b6261736536342c000000600082015250565b6000613f36601d83613ac3565b9150613f4182613f00565b601d82019050919050565b6000613f5782613f29565b9150613f638284613b1a565b915081905092915050565b7f4572726f723a20636861726163746572206d757374206861766520485020746f60008201527f2061747461636b20626f73732e00000000000000000000000000000000000000602082015250565b6000613fca602d83612fdc565b9150613fd582613f6e565b604082019050919050565b60006020820190508181036000830152613ff981613fbd565b9050919050565b7f4572726f723a20426f7373206d757374206861766520485020746f206174746160008201527f636b206368617261637465722e00000000000000000000000000000000000000602082015250565b600061405c602d83612fdc565b915061406782614000565b604082019050919050565b6000602082019050818103600083015261408b8161404f565b9050919050565b7f4e487b7100000000000000000000000000000000000000000000000000000000600052601160045260246000fd5b60006140cc82612f11565b91506140d783612f11565b92508282039050818111156140ef576140ee614092565b5b92915050565b600060608201905061410a60008301866130d3565b6141176020830185613370565b6141246040830184613370565b949350505050565b7f4e487b7100000000000000000000000000000000000000000000000000000000600052603260045260246000fd5b60008190508160005260206000209050919050565b60006020601f8301049050919050565b600082821b905092915050565b6000600883026141bd7fffffffffffffffffffffffffffffffffffffffffffffffffffffffffffffffff82614180565b6141c78683614180565b95508019841693508086168417925050509392505050565b6000819050919050565b60006142046141ff6141fa84612f11565b6141df565b612f11565b9050919050565b6000819050919050565b61421e836141e9565b61423261422a8261420b565b84845461418d565b825550505050565b600090565b61424761423a565b614252818484614215565b505050565b5b818110156142765761426b60008261423f565b600181019050614258565b5050565b601f8211156142bb5761428c8161415b565b61429584614170565b810160208510156142a4578190505b6142b86142b085614170565b830182614257565b50505b505050565b600082821c905092915050565b60006142de600019846008026142c0565b1980831691505092915050565b60006142f783836142cd565b9150826002028217905092915050565b61431082612e81565b67ffffffffffffffff811115614329576143286134fc565b5b61433382546137de565b61433e82828561427a565b600060209050601f831160018114614371576000841561435f578287015190505b61436985826142eb565b8655506143d1565b601f19841661437f8661415b565b60005b828110156143a757848901518255600182019150602085019450602081019050614382565b868310156143c457848901516143c0601f8916826142cd565b8355505b6001600288020188555050505b505050505050565b600060808201905081810360008301526143f38187612fed565b905081810360208301526144078186612fed565b90506144166040830185613370565b81810360608301526144288184612fed565b905095945050505050565b7f4552433732313a207472616e736665722066726f6d20696e636f72726563742060008201527f6f776e6572000000000000000000000000000000000000000000000000000000602082015250565b600061448f602583612fdc565b915061449a82614433565b604082019050919050565b600060208201905081810360008301526144be81614482565b9050919050565b7f4552433732313a207472616e7366657220746f20746865207a65726f2061646460008201527f7265737300000000000000000000000000000000000000000000000000000000602082015250565b6000614521602483612fdc565b915061452c826144c5565b604082019050919050565b6000602082019050818103600083015261455081614514565b9050919050565b600061456282612f11565b915061456d83612f11565b925082820190508082111561458557614584614092565b5b92915050565b7f4552433732313a20617070726f766520746f2063616c6c657200000000000000600082015250565b60006145c1601983612fdc565b91506145cc8261458b565b602082019050919050565b600060208201905081810360008301526145f0816145b4565b9050919050565b7f4552433732313a207472616e7366657220746f206e6f6e20455243373231526560008201527f63656976657220696d706c656d656e7465720000000000000000000000000000602082015250565b6000614653603283612fdc565b915061465e826145f7565b604082019050919050565b6000602082019050818103600083015261468281614646565b9050919050565b600061469482612f11565b91507fffffffffffffffffffffffffffffffffffffffffffffffffffffffffffffffff82036146c6576146c5614092565b5b600182019050919050565b7f4e487b7100000000000000000000000000000000000000000000000000000000600052601260045260246000fd5b600061470b82612f11565b915061471683612f11565b925082614726576147256146d1565b5b828204905092915050565b600061473c82612f11565b915061474783612f11565b925082614757576147566146d1565b5b828206905092915050565b600061476d82612f11565b915061477883612f11565b925082820261478681612f11565b9150828204841483151761479d5761479c614092565b5b5092915050565b6000819050919050565b6147bf6147ba82612f11565b6147a4565b82525050565b60008160601b9050919050565b60006147dd826147c5565b9050919050565b60006147ef826147d2565b9050919050565b614807614802826130c1565b6147e4565b82525050565b600061481982866147ae565b60208201915061482982856147f6565b60148201915061483982846147ae565b602082019150819050949350505050565b600060808201905081810360008301526148648187612fed565b905081810360208301526148788186612fed565b90506148876040830185613370565b6148946060830184613370565b95945050505050565b600060608201905081810360008301526148b78186612fed565b90506148c66020830185613370565b6148d36040830184613370565b949350505050565b600081519050919050565b600082825260208201905092915050565b6000614902826148db565b61490c81856148e6565b935061491c818560208601612e9d565b61492581612ec7565b840191505092915050565b600060808201905061494560008301876130d3565b61495260208301866130d3565b61495f6040830185613370565b818103606083015261497181846148f7565b905095945050505050565b60008151905061498b81612df2565b92915050565b6000602082840312156149a7576149a6612dbc565b5b60006149b58482850161497c565b91505092915050565b7f4552433732313a206d696e7420746f20746865207a65726f2061646472657373600082015250565b60006149f4602083612fdc565b91506149ff826149be565b602082019050919050565b60006020820190508181036000830152614a23816149e7565b9050919050565b7f4552433732313a20746f6b656e20616c7265616479206d696e74656400000000600082015250565b6000614a60601c83612fdc565b9150614a6b82614a2a565b602082019050919050565b60006020820190508181036000830152614a8f81614a53565b905091905056fe4142434445464748494a4b4c4d4e4f505152535455565758595a6162636465666768696a6b6c6d6e6f707172737475767778797a303132333435363738392b2f4d696e746564204e465420772f20746f6b656e496420257320616e6420636861726163746572496e6465782025730a506c6179657220772f206368617261637465722025732061626f757420746f2061747461636b2e2048617320257320485020616e64202573204144a26469706673582212209d591bd90f9b849a837e904d8d859dc085f1bc9f9e251290cf4b11eeb7dc86a864736f6c63430008110033446f6e6520696e697469616c697a696e6720257320772f2048502025732c20696d67202573446f6e6520696e697469616c697a696e6720626f737320257320772f2048502025732c20696d67202573",
  "linkReferences": {},
  "deployedLinkReferences": {}
}